:020000040800F2
:10000000A842002089010008E1010008E101000880
:10001000E1010008E1010008E10100080000000022
:10002000000000000000000000000000E1010008E6
:10003000E101000800000000E1010008E101000802
:10004000E1010008E1010008E1010008E101000808
:10005000E1010008E1010008E1010008E1010008F8
:10006000E1010008E1010008E1010008E1010008E8
:10007000E1010008E1010008E1010008E1010008D8
:10008000E1010008E1010008E1010008E1010008C8
:10009000E1010008E1010008E1010008E1010008B8
:1000A000E1010008E1010008E1010008E1010008A8
:1000B000E101000825030008E1010008E101000852
:1000C000E1010008E1010008E1010008E101000888
:1000D000E1010008E1010008E1010008E101000878
:1000E000E1010008E1010008E1010008E101000868
:1000F000E1010008E1010008E1010008E101000858
:10010000E1010008E1010008E1010008E101000847
:10011000E1010008E1010008E1010008E101000837
:10012000E1010008E1010008E1010008E101000827
:10013000E1010008E1010008E1010008E101000817
:10014000E1010008E1010008E1010008E101000807
:10015000E1010008E1010008E1010008E1010008F7
:10016000E1010008E1010008E1010008E1010008E7
:10017000E1010008E1010008E1010008E1010008D7
:10018000E1010008E101000880B582B000AF0F4B2B
:100190007B600F4B3B6007E03B681A1D3A607A6852
:1001A000111D796012681A603B680A4A9342F3D3C2
:1001B00009480A494FF000028842B8BF40F8042BB2
:1001C000FADB00F02DF80837BD4680BD980A00081C
:1001D00000000020843A0020843A0020A43A002045
:1001E00080B400AFFEE700BF80B485B000AFF86018
:1001F000B9607A603B60FA68BB68D31AB9693A683B
:100200008A1A02FB03F27968BB68CB1A92FBF3F2FD
:100210003B68134418461437BD465DF8047B7047AD
:1002200080B586B000AF00F0CFF90420012100F0C6
:10023000D7F8364B00221A80344B00225A80334BB9
:1002400040F247325A60314B00221A812F4B002274
:100250009A722F482D4900F0BDFA2D48012100F077
:1002600023FB7023BB800123FB8002233B823B1DC9
:100270002748194600F038FB0220012100F092F8CF
:1002800024480621022200F057F9234B40221A602D
:10029000214B00229A71204B0022DA711E4B022260
:1002A0001A711D4B03225A711A481B4900F0B6F807
:1002B0001A4B1D221A70194B00225A70174B01223B
:1002C0009A70164B0122DA70144800F023FA0220CB
:1002D000012100F085F80D4B00221A800B4B002203
:1002E0005A800A4B4FF4F6625A60084B00221A817A
:1002F0000B48064900F06EFA09480121012200F07E
:100300006DFB0748012100F0CFFAFEE78C3A002090
:100310000008004000040240983A0020A03A002063
:100320000004004090B583B002AF1848012100F0EE
:1003300079FB0346002B25D01448012100F09CFBDB
:10034000134B1B685A1C12490A60124AD35C1A46A6
:10035000114B1A60114C104B1A6840F2463300934F
:1003600010460021FE220023FFF73EFF0346636391
:10037000074B1B681A460A4B1B689A4202D1044B72
:1003800000221A600437BD4690BD00BF0004004043
:10039000843A002000000020883A00200008004035
:1003A000803A002080B483B000AF78600B46FB70C9
:1003B000FB78002B06D00949084B1A6B7B68134366
:1003C0000B6306E00549054B1A6B7B68DB43134062
:1003D0000B630C37BD465DF8047B70470038024064
:1003E00080B483B000AF78600B46FB70FB78002BC5
:1003F00006D00949084B1A6C7B6813430B6406E06E
:100400000549054B1A6C7B68DB4313400B640C37C2
:10041000BD465DF8047B70470038024080B487B069
:1004200000AF7860396000237B6100233B610023CB
:10043000FB6000237B6176E07B69012202FA03F313
:100440003B613B681A683B691340FB60FA683B6993
:100450009A4265D17B681A687B695B001946032361
:100460008B40DB431A407B681A607B681A683B68E4
:100470001B7919467B695B0001FA03F31A437B6819
:100480001A603B681B79012B03D03B681B79022B58
:100490002ED17B689A687B695B00194603238B40E9
:1004A000DB431A407B689A607B689A683B685B799B
:1004B00019467B695B0001FA03F31A437B689A6073
:1004C0007B685A687B699BB2194601238B40DB43EA
:1004D0001A407B685A607B685B683A68927911467B
:1004E0007A6992B201FA02F292B21A437B685A60B8
:1004F0007B68DA687B699BB25B00032101FA03F336
:10050000DB431A407B68DA607B68DA683B68DB793A
:1005100019467B695B0001FA03F31A437B68DA60D2
:100520007B6901337B617B690F2B85D91C37BD4605
:100530005DF8047B704700BF80B485B000AF786081
:100540000B467B8013467B700023FB600023BB605F
:100550007B787A8802F0070292009340FB607B88E8
:10056000DB089BB218467B88DB089BB21A467B6887
:10057000083253F822207B8803F007039B001946BA
:100580000F238B40DB4302EA03017B6800F1080282
:1005900043F822107B88DB089BB21A467B6808323E
:1005A00053F82220FB681343BB607B88DB089BB2B7
:1005B0001A467B680832B96843F822101437BD46E2
:1005C0005DF8047B704700BF80B500AF114A114B46
:1005D0001B6843F0010313600E4B00229A600D4A22
:1005E0000C4B1B6823F0847323F480331360094B96
:1005F000094A5A60074A074B1B6823F4802313609B
:10060000044B0022DA6000F00BF8044B4FF000625C
:100610009A6080BD003802401030002400ED00E0F8
:1006200080B483B000AF00237B6000233B60354A79
:10063000344B1B6843F480331360324B1B6803F464
:1006400000333B607B6801337B603B68002B03D148
:100650007B68B3F5A06FF0D12A4B1B6803F400331D
:10066000002B02D001233B6001E000233B603B688C
:10067000012B42D1234A234B1B6C43F0805313645C
:10068000214A214B1B6843F4804313601D4A1D4BD4
:100690009B6893601B4A1B4B9B6843F40043936029
:1006A000184A184B9B6843F4A0539360154B174AA4
:1006B0005A60144A134B1B6843F08073136000BFE9
:1006C000104B1B6803F00073002BF9D0104B40F265
:1006D00005621A600B4A0B4B9B6823F0030393607F
:1006E000084A084B9B6843F00203936000BF054B28
:1006F0009B6803F00C03082BF9D10C37BD465DF85D
:10070000047B7047003802400070004019544007D5
:10071000003C024080B485B000AF78600023FB73DA
:100720000023BB730F237B737B68DB78002B38D0EF
:10073000264BDB68DB4303F4E0631B0AFB73FB7BA4
:10074000C3F10403BB737A7BFB7B42FA03F37B7335
:100750007B685B781A46BB7B02FA03F3FB737B680A
:100760009A787B7B1340DAB2FB7B1343FB73FB7BF2
:100770001B01FB73164A7B681B781344FA7B83F8D2
:100780000023134A7B681B785B09DBB218467B6841
:100790001B7803F01F03012101FA03F342F8203014
:1007A0000FE00B497B681B785B09DBB218467B685E
:1007B0001B7803F01F0301229A4000F1200341F847
:1007C00023201437BD465DF8047B704700ED00E040
:1007D00000E100E080B485B000AF786039600023AC
:1007E000FB817B681B88FB817B68284A934213D07E
:1007F0007B68274A93420FD07B68B3F1804F0BD0C0
:100800007B68244A934207D07B68234A934203D0F3
:100810007B68224A934208D1FB8923F07003FB8155
:100820003B685A88FB891343FB817B681C4A9342CF
:100830000CD07B681B4A934208D0FB8923F4407399
:10084000FB813B681A89FB891343FB817B68FA892A
:100850001A803B685A687B68DA623B681A887B6852
:100860001A857B68094A934203D07B68084A934201
:1008700004D13B689B7A9AB27B681A867B68012216
:100880009A821437BD465DF8047B70470000014032
:10089000000401400004004000080040000C00403B
:1008A000001000400014004080B483B000AF7860B6
:1008B0000B46FB70FB78002B08D07B681B889BB233
:1008C00043F001039AB27B681A8007E07B681B88BB
:1008D0009BB223F001039AB27B681A800C37BD46A5
:1008E0005DF8047B704700BF80B485B000AF7860CE
:1008F000396000237B810023FB810023BB817B685F
:100900001B8C9BB223F001039AB27B681A847B682C
:100910001B8CFB817B689B88BB817B681B8B7B81ED
:100920007B8923F070037B817B8923F003037B8128
:100930003B681A887B8913437B81FB8923F0020380
:10094000FB813B689A89FB891343FB813B685A888A
:10095000FB891343FB817B681E4A934203D07B686B
:100960001D4A934223D1FB8923F00803FB813B6896
:10097000DA89FB891343FB81FB8923F00403FB81A4
:100980003B689A88FB891343FB81BB8923F48073FE
:10099000BB81BB8923F40073BB813B681A8ABB8986
:1009A0001343BB813B685A8ABB891343BB817B6875
:1009B000BA899A807B687A891A833B689A687B68CF
:1009C0005A637B68FA891A841437BD465DF8047B44
:1009D000704700BF000001400004014080B483B0B4
:1009E00000AF78600B467B8013467B707B78002BD2
:1009F00008D07B689B899AB27B8813439AB27B6844
:100A00009A8109E07B689B899AB27B88DB439BB221
:100A100013409AB27B689A810C37BD465DF8047B1F
:100A2000704700BF80B485B000AF78600B467B8014
:100A30000023FB730023BB8100237B817B681B8A1F
:100A40009AB27B881340BB817B689B899AB27B8872
:100A500013407B81BB89002B05D07B89002B02D002
:100A60000123FB7301E00023FB73FB7B1846143763
:100A7000BD465DF8047B704780B483B000AF7860FA
:100A80000B467B807B88DB439AB27B681A820C37EB
:080A9000BD465DF8047B7047D0
:100A98008080807F807F807F7F807F80807F807F55
:100AA80080807F8080807F807F7F807F807F807F45
:100AB800807F80807F807F807F807F80807F807F35
:100AC80080807F8080807F807F807F807F807F7F25
:100AD800807F807F80807F807F807F8080807F8014
:100AE8007F80807F807F807F807F80807F80807F05
:100AF80080807F807F80807F807F807F80807F80F4
:100B08007F807F807F807F807F80807F807F807FE5
:100B1800807F807F80808080808080808080807FD0
:100B2800807F807F807F807F80807F80807F807FC4
:100B3800807F7F807F80807F807F8080807F807FB4
:100B480080807F807F807F8080807F807F80807FA3
:100B58007F807F807F7F807F807F808080807F8094
:100B68007F80807F807F807F807F80807F807F8084
:100B78007F807F80807F807F807F80808080807F73
:100B880080808080807F807F807F807F80807F8062
:100B98008080807F807F807F807F8080807F808052
:100BA8008080807F807F80808080807F8080808040
:100BB800807F807F807F808080807F807F807F8033
:100BC8007F807F80807F807F7F807F808080808023
:100BD8007F807F807F807F807F80807F807F808014
:100BE8007F807F80807F807F807F807F807F808004
:100BF8007F80807F807F807F807F807F807F807FF5
:100C0800807F807F807F80807F807F807F808080E2
:100C180080807F807F807F807F80807F807F807FD3
:100C2800807F8080807F807F807F807F80807F80C2
:100C38007F80807F80807F807F7F807F807F807FB4
:100C4800807F808080807F808080808080807F809F
:100C58007F807F807F807F80807F807F807F807F94
:100C6800807F80807F807F80807F807F807F807F83
:100C7800807F8080807F807F7F807F7F807F807F74
:100C8800807F807F80807F807F807F807F807F8063
:100C98007F807F80807F8080807F80807F80808051
:100CA80080807F8080808080807F807F807F807F41
:100CB800807F807F807F807F808080807F807F8032
:100CC8007F807F808080807F80808080807F7F8021
:100CD8007F807F7F807F8080807F807F8080808012
:100CE8007F807F807F807F807F80807F807F808003
:100CF80080808080807F807F807F807F807F807FF2
:100D0800807F807F807F807F807F807F807F807FE3
:100D1800807F807F807F80808080808080808080CE
:100D280080807F807F80807F807F80807F80807FC1
:100D3800807F80807F80808080808080807F8080AE
:100D4800807F807F80807F807F80807F807F807FA2
:100D5800807F80807F807F80807F80807F807F8091
:100D68007F80807F807F807F807F80808080807F81
:100D7800807F807F807F807F807F807F807F807F73
:100D8800807F8080807F807F807F807F80807F8061
:100D98007F807F807F807F807F807F807F80807F53
:100DA800807F807F7F807F80807F807F807F808042
:100DB8007F80807F80807F807F80807F807F807F32
:100DC800807F808080807F807F80807F807F807F21
:100DD800807F807F807F807F8080807F807F807F12
:100DE8007F80807F807F807F80807F807F80807F02
:100DF800807F807F80807F807F80807F807F8080F1
:100E0800807F807F807F80807F807F807F807F80E1
:100E18007F807F807F807F807F807F80807F807FD2
:100E28008080807F807F807F807F80807F807F80C0
:100E3800807F807F80807F807F807F807F808080B0
:100E4800808080807F807F80807F807F807F807FA0
:100E580080807F807F80807F80807F807F8080808F
:100E68007F807F807F80807F807F807F80807F8081
:100E7800807F807F80807F807F807F807F807F8071
:100E8800807F807F80807F80807F80807F807F8060
:100E98007F80807F807F807F80807F807F807F8051
:100EA80080807F80808080807F807F807F807F803F
:100EB800807F807F80807F80807F807F8080807F30
:100EC800807F80807F7F80807F807F808080807F20
:100ED8008080807F7F808080808080807F807F800E
:100EE8007F80807F807F807F807F807F7F807F7F03
:100EF8007F7F7F7F7F7F7F7F7F7F7F7F7F7F7F7FFA
:100F08007F7F7F7F7F7F7F7F7F7F7F7F7F7F7F7FE9
:100F18007F7F7F7F7F7F7F7F7F7F7F7F7F7F7F7FD9
:100F28007F7F7F7F7F7F7F7F7F7F7F7F7F7F7F7FC9
:100F38007F7F7F7F7F7F7F7F7F7F7F7F7F7F7F7FB9
:100F48007F7F7F7F7F7F7F7F7F7F7F7F7F7F7F7FA9
:100F58007F7F7F7F7F7F7F7F7F7F7F7F7F7F7F7F99
:100F68007F7F7F7F7F7F7F7F7F7F7F7F7F7F7F7F89
:100F78007F7F7F7F7F7F7F7F7F7F7F7F7F7F7F7F79
:100F88007F7F7F7F7F7F7F7F7F7F7F7F7F7F7F7F69
:100F98007F7F7F7F7F7F7F7F7F7F7F7F7F7F7F7F59
:100FA8007F7F7F7F7F7F7F7F7F7F7F7F7F7F7F7F49
:100FB8007F7F7F7F7F7F7F7F7F7F7F7F7F7F7F7F39
:100FC8007F7F7F7F7F7F7F7F7F7F7F7F7F7F7F7F29
:100FD8007F7F7F7F7F7F7F7F7F7F7F7F7F7F7F7F19
:100FE8007F7F7F7F7F7F7F7F7F7F7F7F7F7F7F7F09
:100FF8007F7F7F7F7F7F7F7F7F7F7F7F7F7F7F7FF9
:101008007F7F7F7F7F7F7F7F7F7F7F7F7F7F7F7FE8
:101018007F7F7F7F7F7F7F7F7F80808080808080D1
:1010280080808080808080808080808080808080B8
:1010380080808080808080808080808080808080A8
:101048008080808080808080808080808080808098
:101058008080808080808080808080808080808088
:101068008080808080808080808080808080808078
:101078008080808080808080808080808080808068
:101088008080808080808080808080808080808058
:101098008080808080808080808080808080808048
:1010A8008080808080808080808080808080808038
:1010B8008080808080808080808080808080808028
:1010C8008080808080808080808080808080808018
:1010D8008080808080808080808080808080808008
:1010E80080808080808080808080808080808080F8
:1010F8008080808080807F7F7F7F808080808080EC
:101108008080808080807F7F7F7F7F7F7F7F7F7FE1
:101118007F7F7F7F7F7F7F7F7F7F7F7F7F7F7F7FD7
:101128007F7F7F7F7F7F7F80807F7F8080807F7FC2
:101138007F7F7F7F7F7F7F7F7F7F7F7F7F7F7F7FB7
:101148007F8080808080807F7F7F7F7F7F7F7F7FA1
:101158007F7F808080807F7F7F7F7F7F7F7F7F7F93
:101168007F7F7F7F7E7F7F7F7F7F7F808080808083
:101178008080807F7F7F7F7F7F7F7F80807F7F7F72
:101188007F7F7F7F7F7F807F7F7F80808080808060
:1011980080808080807F7F7F7F7F7F7F7F7F7F7F52
:1011A800807F7F7F7F7F7F7F7F7F7F7F7F7F7F7F46
:1011B8007F7F7F7F7F7F8080808080818181818128
:1011C8008181818181818181818181818181808009
:1011D8007F80807F7F7F7F7F7E7E7F7F7F7F7F7F17
:1011E8007F7F7F7F80808080807F80807F7F7F7F00
:1011F8007F7E7E7E7E7F7F7F7F7F7F7F7F80807FF9
:1012080080818080808081818181818080818181CD
:101218008283828383848483838281807F7F7F7FAC
:101228007F80818182848483838383828283848490
:10123800848482807C77716B645C5B6167696D779D
:1012480080838484837F7D808283878F9697999B10
:1012580097928E8A837E7E7F7F8082848585848232
:101268007E7D7E7D7C7E838587888A888684817B57
:1012780075706B655D585A5F63656B747B7E7F7FA5
:101288007F808285878A91999D9D9E9D98938D8662
:10129800807E7E7F7F8082858582807E7C7C7C7D4F
:1012A8007E828688898A898785807A746F6A645C79
:1012B80055575E62646973797C7E7F7F7F828689F9
:1012C8008C929BA0A0A1A19D98928B84807F7E7D0B
:1012D8007D7E8081817F7E7C7A79797A7C80848723
:1012E800898B8B88837C746C635953575D616570F7
:1012F800797E80817F7A797C808186929CA0A2A564
:10130800A39E9A948B848383828182838585827F3E
:101318007B79787775777B7F8387888887857F77E0
:101328006E675E56555B5F626B777D7F81817D79E5
:101338007A7C7E808A959C9FA5A7A29E9A91888395
:10134800828180818486868584807B7978757477AC
:101358007B7E828688878580786E655B5252595D70
:10136800616D7B83858686827C7A7C7D808A969C6B
:10137800A0A6A6A19C958C8482807F7F8285868684
:1013880085827E7B797574777A7E82868887858167
:10139800786E655B5151585D616C7B828587878368
:1013A8007E7A7B7C7E87949A9EA6A9A39E99908537
:1013B80082807D7D808588888988857F7C7A75751F
:1013C800787C8083878988857E766B60544D5156FA
:1013D8005961707E85878A89847D7A7C7C7E89952F
:1013E8009A9FA7A8A39D978D84817E7C7C7F848704
:1013F80088888985807E7A7676797D7F83888989D1
:10140800847D73675B4E4B505459647480868A8C14
:1014180089837D7B7B7B808D979BA3A9A8A39E95C1
:1014280089837F7B7A7C808588898A8984807C7897
:101438007677797D8186898A88837B6E63554B4C64
:101448005152596A7A82888D8D8A837E7C7B7C840E
:1014580090969BA6AAA7A29C9288827D78777B7F8C
:101468008386888A8985807D7976777A7D80868962
:10147800888681776C5F514B4E51535E707B838BAE
:101488008F8D89837F7D7A7E8790959EA7A9A6A256
:101498009B9088817B78787B808385888A88848103
:1014A8007D7977787A7C818688898781776B5F52A6
:1014B8004D4F50535F707C838A8E8E88827F7D7AF1
:1014C8007E8991959FA8A9A5A29B8F87817A767717
:1014D8007A7E8285898B8984827E7A78797A7C8201
:1014E800858687847C7266575051504F586A767F3C
:1014F800888F918E8783807C7C848A8E98A3A5A50B
:10150800A5A0968E877F7876777A7E83878A8B895F
:1015180085827E7A797A7A7D808283827C74695B1F
:101528005456534E57697379848E918F8B88847F74
:101538007F84878A939D9FA1A4A098928B827B78B1
:1015480078777A7F848789898885827E7C7A797C96
:101558007E7E7F807C746C5F585A575055667075D4
:101568007F8A8F8E8B89878280858788919B9D9FB4
:10157800A2A19A938D847D7977787A7E83878989E9
:101588008886827E7C7B7A7C7E7F80807C746C609F
:10159800595A5751566670757F898E8E8B8A888303
:1015A800818587888F9A9C9EA2A19B958F867E7A3B
:1015B8007877777A7F848687888785827F7D7C7D28
:1015C8007E7E7F7F7C766F635B5D5B5355636E7257
:1015D80079848B8D8A898985828588878D979B9D5B
:1015E800A0A29E98938B847E797878787C80838477
:1015F800868784817F7D7B7C7C797A7C79736D6436
:1016080060615D575C696E727B84898B8988888587
:10161800848687878F96969A9F9F9B99948C8782BA
:101628007D7A7A7A7E7F808385868382807E7E7DBE
:101638007C7A7B7B77726D645F615F575B686F71E3
:101648007881888987878985848788888F979699FC
:10165800A0A09B98948E88827E7B7A7A7D7E7F83F9
:1016680085858382807E7D7D7C7A7B7B78736E64C2
:101678005F6260585B686F71788188888687898522
:10168800848789888E96979A9F9F9C9A958F89833D
:101698007F7B79797D7E7E8285848281807D7C7C5A
:1016A8007A797A7A77736E666264615A5C686E6F6B
:1016B8007680868685878985848687878D939498A2
:1016C8009EA09D9A98938D86817E7B797B7D7E8076
:1016D80082838281807F7D7C7A78787976726E6762
:1016E8006265635D5E696F70757E848583848885B5
:1016F800838588898D9394979E9F9D9B98948F89C5
:1017080084807E7B7B7D7E7F81828181807E7D7CE3
:101718007B7979797774706A6464655F5D666E70E9
:10172800727B828383838686838486878990949458
:10173800999E9E9C9A98938E8883807D7B7B7D7EE4
:101748007F81818180807F7D7C7B79797976736FD9
:10175800696364645E5E666E70737B82858282876D
:1017680086838487888B9194959B9F9E9B9998925A
:101778008B86837F7B7B7C7C7D7F81817F80807D66
:101788007C7C7B78787774706C656467625E646D66
:101798007070777E828180848582838687898F9323
:1017A80094999F9E9D9B9A97908A85827E7C7D7C4A
:1017B8007C7F80807F7F807D7C7B7A79777775726C
:1017C8006E6864676560626A7071747C81817F820B
:1017D8008582818486878B9293969C9F9D9B9A99FC
:1017E800938C8885817C7C7D7C7D80807F7F807FD9
:1017F8007C7C7C7A78777775716C676667636164DF
:101808006C7070757C817F7E828481828587878CED
:101818009294979D9F9E9B9B99938C8986807C7CB4
:101828007C7B7D7F7D7C7E7F7E7C7C7D7B797978EF
:1018380075716D6765676461656D7070757C807EB4
:101848007D828380828687878D9394979DA09E9CB6
:101858009B99938C8986807C7C7C7B7C7E7E7E7E3B
:101868007E7E7C7B7B7B79787775716D6766686433
:1018780061666E7070767C7F7D7D82827F818686D0
:10188800878E9494989EA09F9D9C9A938D8A878119
:101898007D7E7D7B7D7E7D7D7E7E7C7A7A7B7A7780
:1018A800787875716E6967686662666D6F6F747A4D
:1018B8007E7C7C808380808587878D9294979C9E90
:1018C8009D9D9C9A958F8C8983807F7E7C7D7E7C74
:1018D8007C7E7D7C7A7A7B7A7878787673706B6692
:1018E800686762646A6F6F72797D7E7C7F838181AD
:1018F8008486868A9293949B9E9E9D9E9C97928EA8
:101908008A86807F7F7C7C7D7D7B7C7E7B7A7A7AF1
:101918007B7979797876737069676A6662646C6FC7
:101928006D72787D7C7B818280818587868C92939D
:10193800969CA09E9D9D9C97918E8B857F7F807B9A
:101948007B7E7D7C7C7D7B7A7A7A7B7978797875E9
:1019580072716A66696762646C6E6D72787D7C7B91
:1019680081837F808587868D9393969DA09E9D9E7B
:101978009C97918E8B8581807E7B7D7E7B7A7C7D1A
:101988007A797A7B7A79797A787675716B686A6808
:1019980063646A6E6C6F767B7A7B7F817F818585D5
:1019A800878D9293959B9F9F9D9D9D9993908D88E0
:1019B80083817F7D7D7D7C7B7B7C7B79797B7A795C
:1019C800797A797775726E6968696563676C6E6E26
:1019D80073797B7B7C80817F828486898E929398C1
:1019E8009D9F9F9E9E9C97928E8B8682807E7D7DFA
:1019F8007C7C7B7B7B7A797979797878797977744B
:101A0800726E696A696464696D6D6E74797B7B7DD9
:101A1800818080838586899093949A9FA09F9D9EBC
:101A28009B96918D8A8682817F7E7D7D7C7A7A7B6A
:101A3800797777797978787B7A777573706A696955
:101A48006665676C6F6E73787C7C7B808080818331
:101A580087888C9294989B9FA09D9C9C99948F8C2E
:101A68008A8582817E7D7D7C7B797A7A797878799E
:101A78007979797A79777573706A69696664666C59
:101A88006E6F73787D7C7B7F8180818386898E925F
:101A9800959A9D9F9F9E9D9B97928E8C888482800D
:101AA8007F7E7C7B7A7978787776767878787A7B97
:101AB8007A7877746F6A69696564686D6E6F747A2D
:101AC8007B7B7C7F7F7F8183868A8F93969A9EA07B
:101AD8009F9D9D9B96918D8B878482817F7F7E7C45
:101AE8007A7978777574757777787A7B7B7B787570
:101AF800726D6A6A6764666B6F6F71777C7C7A7CDB
:101B0800807F7F83868A8D9195989D9FA09F9C9BBF
:101B180099938E8B8986848280807E7C7C7A787685
:101B28007574737576777A7B7D7E7B7976726B6850
:101B38006A6765676C6F7073787B7C7A7C7E7E7E63
:101B48008285888D9295989C9E9F9F9D9A98969045
:101B58008C8A8886838281807E7C7B797675757392
:101B6800737677777A7C7D7D7B7976726B686A6726
:101B780064676C6F7073787B7B7A7C7E7E7F8285EE
:101B8800888E93979A9EA0A09F9C9996938F8C88F5
:101B980086858381807F7D7A787674737272737597
:101BA800787B7C7E807F7C78746F686868656669FE
:101BB8006F7172777A7C7B7A7D7B7C8083868A9151
:101BC80097999D9FA0A09E9B9794908E8A878686C2
:101BD8008381807E7B7875727171717174777B7D7A
:101BE800808283817E7B77706967686665696F72BA
:101BF80072777A7A79797A79797C80858991979AD6
:101C08009FA3A19E9E9B96918E8C8A8989878684A4
:101C1800827F797774706E6D6F7074797C7F83853D
:101C28008685817E7A76706B67686A696A6E747574
:101C380075777877767476777A7E83898F969B9C8A
:101C4800A0A19F9D9A9793908E8C8C8A8988858372
:101C5800807D7874726F6C6D707175797C7F838507
:101C68008583827E7A75706B67686A696C70757730
:101C78007679787776737577797F848A91999E9E3D
:101C8800A1A29F9C9895918F8E8E8D8B8B8A858033
:101C98007D78726D6C6B6C6E72777C7F82848484C5
:101CA800837F7E7B777472716E6F706E6F6F7172E7
:101CB8006F707071717075797D84888E94989A9B15
:101CC8009D9C9B999795949493928F8E8B87817CFA
:101CD8007974706F6F6F707377797D808081808180
:101CE8008081817F7F7E7C797773706F6D6A6A6D82
:101CF8006D6D6D71727374767A7C81868A8E929717
:101D08009B9B9C9E9C9B98969592918C8B88858199
:101D18007C797673707170717476787A7D7F808241
:101D28008382848484858382807D7774706C6B6AF7
:101D38006A696D706E6E71727274767A7D81868B47
:101D48008F9397999B9C9B9A9997959291908D8B3D
:101D58008884837E79767471717171737678797CF1
:101D68007E8081818383848484848383807B787468
:101D78006F6C6A6A69696D6F6F6F72737374777A63
:101D88007E82878C91969A9B9B9B9B999795939221
:101D9800908D8B8885807D79767471717273767871
:101DA8007B7D7E80818383838688888889898683F2
:101DB8007F7974706A6767686A696C706F70706D34
:101DC8006F7172777C82898E9497999A9898969376
:101DD800939290908F8D8A88847F7B7976747374C0
:101DE80077777A7C7D7F80818284858688898C8BD1
:101DF80089898785817D7975716D6969696968697E
:101E08006B6D6C6E6F707374787B8086898C8F9223
:101E180094939494939392938F8D8D898684817EE5
:101E28007E7C7B7B7B7B7A7D7D7E808083848687BE
:101E38008987888A878886868583817E7D79757477
:101E4800726E6C6B696A6A6B6E6E6F737374777699
:101E5800797D7E808488898B8D8E8D8E8E8D8B8A00
:101E68008C8A8988888684858281817F7F82808325
:101E78008380868581848684848488878385858514
:101E8800827E818279797F777379757278747274BA
:101E980073737274747779767A7B797B7B7B7E7EB9
:101EA80080838284868784848783828582858482EE
:101EB80086848583828584828483848580848381E3
:101EC80083818386817E85827D7E80817F7E7F80FF
:101ED8007E7D7F7D797F80797E807D7E807B7B8023
:101EE8007C7D7D7B7D7F7D7B7F7E7E7F7E7B7C7D19
:101EF800807C7D847C7F837F8280818585828685C6
:101F0800838483828385828483848182827F827FA3
:101F1800887E7E877D82847F7C87837C84817F81A5
:101F2800847E808082817C86797B8380787D837BB8
:101F38007E7B7C7C7C7A797E7D777980767C8079E3
:101F48007B807D77887D7782837D7A85807D82839B
:101F5800817D7F81817F7F7E82827D80837E7E837B
:101F6800807F83867E83867E83808284818381814D
:101F780083807F877D80827E847A7E827E7F817E59
:101F88007C847C7B817C7C807E7D807F7C77827C6E
:101F980079807585856C808C747489886F7F8E755F
:101FA8007F807E86787D88817983877982847B8526
:101FB800807F83817E80857D84807E878079887F0D
:101FC800788E787988837B7B88807B7B89787E890B
:101FD80076847F7D78897C6F8E7C797C827F7A811C
:101FE80080817B83857F778487767E83817E8181EC
:101FF8007D80837D778787787C89807A817E817FE1
:10200800818181817D84827B7F857C80867E7E80C4
:10201800847D7F8082847881837D817D7E897B7ABF
:102028008680797E887F7A8187807E7C84886E80AE
:102038008E7F6F8590707E878170858C74807F8697
:102048007C7C82817D7885837C758F877186857F8E
:102058007C81877A8187778282857F75907C768676
:102068007F7F7D7C808B77768C847B787F887F7779
:102078007E8B7D728687767F887385867185827D63
:10208800798A827489827A79877F787D808A737F5A
:10209800867D807A877E7D82807F7F867581878234
:1020A800797B8E797B79898768838F777389857B3C
:1020B80075888672897A82817A857F827C80847C21
:1020C8007B80857E7488877281887D7785827D7B19
:1020D8008082827E7986828373848B757E86847DF6
:1020E80083748B83747E86896B8389856E7F956DF7
:1020F8007C86877382847C827A877E7A808A7280E3
:1021080089797F808874847D7F87787B7F917074DC
:102118009383717791846A85907477858E78748AB1
:10212800887579917D757F8B7F778280847A7C80B2
:102138008976798F787B818777818A73887E7B8A95
:10214800797986837A7A8787787D81857F7886848E
:10215800797E84817B7E897D768687797A877F7987
:102168008185807B83827E7E82837B7A848D737176
:1021780095856C818D7C7485847D7F75888B6F7D5A
:10218800907E737C8F85658793756F8A946D798A45
:1021980086737A917F727F907881787F91717A8542
:1021A80089767B88867677907B7F7B848278877F29
:1021B8007E798687737A947B72838885688B8A7B1D
:1021C8007A7394837080858676789475768C7B7D17
:1021D800838177888078837F81807D7C8A7C7784FF
:1021E80084807781887C79867C847D7C837A8A7EEA
:1021F800797C89837581887F74887E7F837A847DE2
:102208007F81817F7E7D837E81807B847E85767FD2
:102218008E757A898377827F7D897F71848E7482B7
:102228007D7D867D80758F7E728B7985807B7E88AB
:10223800846C83937E668A8E757D7D8C79798483A0
:102248008179817D8B7A718E87707A957C6C868D89
:10225800816E8092777981858372848A7678917C81
:10226800728A837C7C847D837C7C8A758485748374
:1022780089777F87797E84807E84728D85698E8157
:102288007E78848B6B858A778180808373898D6E55
:102298007B868F71709C7D6A8792737191827B7740
:1022A8007F8C7D7F7A83837C7D7E90717793826F2C
:1022B800739D7D698F8777738A8B7377927E738915
:1022C8007C7F7B887D80836E937E757F8788708412
:1022D8008174898D6E8082857D7295777D7F8087F8
:1022E8007481888170858C7C6A928A66907A8181F3
:1022F8007A827F887879828E727B9075758F8965EE
:10230800878C74877C8081798A768283798D6F87C0
:1023180081778979867D7B7D8F7E669189727F8CB6
:1023280078748F81718584807F7589866F7E9380AC
:102338006A81977271937D7A7F7E8B7D6F848D869B
:102348006877A972638C9870669E886F75888E749A
:102358007390866F837F847D7C8383837085897E79
:1023680076818B7A7B7A8C846B8593766E8D837578
:102378008D7D797E84866F8C81758F78758D79785F
:102388009B726C96836884927B777E8D7678858045
:102398008B79788B7874947D7287897C7184868533
:1023A8007581867C82758A8470868A7A7A7D88802F
:1023B80076858C70769B747683878172897F847525
:1023C800808A777C8683768978818283806E8F8401
:1023D8007A7B7F877A7E8D6F7F9269888D74738808
:1023E8008F7674848F77718299716F9285786E91E8
:1023F8008974778F86678A8B7476967E6B8F7F76E3
:10240800838683727E94707B887E83748D816C8DC5
:102418008C6C7F92727B8E777E847B807F8C6F7EC4
:10242800927386777E8A7E7D798C7D738589777CA9
:102438008C7F70868F69848E74817D81847A7B8499
:1024480089767991786B948F60829B697B937A7394
:10245800838D7C74828E7B7387867A7E83807D7E73
:10246800827C837D80817C8C727F857C8D73808863
:10247800787F857F78887F79867E7983877781855D
:102488007483877F787E897A80827B80838079884D
:102498007D758D82777F828377808D787A857B7F43
:1024A80087767E8C7C77828B717B8E87767595702C
:1024B80076947A75868C6F7E857B877A818A6F8120
:1024C80090717D8983728A8368977C71868E7D631B
:1024D800928A7779828B6E8A8A6C838587757B8CE2
:1024E80078837A898372837F85827E768585777CF7
:1024F8008A7F7390767D837D807F8F6886896E92D0
:102508007B7485828375828577897489896B8B84CE
:10251800807887896A8B8977827D817B828A7084BB
:10252800828080768E79838479857B818284787BAA
:102538009275768C78817C8782708B6F86926C77A7
:1025480085857184866F898368918C608A907B7198
:102558007B97747D8676887683877683807C86876A
:102568006F898E6F848B777B8F7A7E88777F828363
:102578007A8B876787936D81937E7B7784887D715B
:102588008E8E668481788082887B788086747A8D46
:10259800807B7E7F7F6F858B7689787E82787F804F
:1025A8008F7A807D7686798386787E80797F7E8132
:1025B80080838A72768F847B818586747C917D7313
:1025C800848F7D6D80967475937B7A7C8688787805
:1025D800838C737D867580847D7D817F7A7E887FFC
:1025E8007983827C7E7F7F85807F7E75848C7A7EEE
:1025F8008879788888797E857C7E7F817F7C7E86D5
:102608007F73888579857F7E8579818A7A798385C4
:102618007B79857F7D7F7B83847B7C8C7E738987B8
:10262800827A7F887C7B818680767F897A738782AD
:102638007D84768087787F848278858578837981A0
:1026480086867B70888179858078827D78837C7E98
:10265800857A7A867C7A84868178827F82817C8674
:10266800817C77868576808385777E867D7F808A64
:102678007F788286807A87857D7F7F857F7C86804C
:102688007F817C7F827F83817D827E7E847E808045
:102698007F817880867B7A80867A7A828180758449
:1026A80088797B8186787B8683797786827C798234
:1026B80084797F8080817D81827D7D80847F7B801D
:1026C8007E7D7E807F7C7D7F7C7981837E7C7F8020
:1026D8007E7F838383837F7D83848083827E8182E0
:1026E800848182847F7C80848180808181808182D2
:1026F8008281858383807F868485848282818185A7
:102708008482877E7F80818380827D7D7C7B7A78CE
:102718007977766E6F70706F70716C72717477768E
:102728007B7C8081818486878C8B89908C8B8C8B39
:1027380089868A87858985848581828282847F7F4C
:102748008283828184878485878486878888838436
:102758008084847E81817E7A7A7B77797A777772B2
:1027680071737274716F706C726F6B6C6E7C807B3E
:1027780078797E858A8B8A88888B8E8C8C8E8D8AD8
:102788008888858286837F7D7E7F807F80807D802C
:102798007F7E82838381848783868A8687878786EC
:1027A800868885838284817D83827C7E7D7B79791E
:1027B8007A78797572737573707171706E6E6D68F1
:1027C800707D807A787C7E82898C89878A8C8B8AD6
:1027D8008C8D8D8A8B87818483827F7C7F7D7E81AF
:1027E800808080807F7F82838284858584878884B7
:1027F8008788878685868384858382817F80807F9A
:102808007D7B7B79797B7A78747276747172716F5B
:102818006E706E696A707E847C777A80868C8C8A0A
:10282800898B8D898C8E908E878583838385807C28
:102838007C7B7C7C7E7D7F807F7E7E838487878790
:10284800898787898A8B8B878582828481807D7A34
:102858007878797B7C7B7A7B7B797B8183817D7CB3
:102868007B7C7C7D7D7975716C6A6A6A717A7A7213
:102878006F747A8086878585878B8D8F9192908DEE
:102888008C8A898A87827E7B79797A7A7C7F7B7940
:102898007B7D80838687868787888A8B8C8B8A88CE
:1028A80087858584817D7C7E7C7A797A7A7B7B7A40
:1028B8007A7B7B7E8181807F7C7C7D7D7C7C79724C
:1028C8006D6B6865646B7678706C727980878987C0
:1028D800878A8E92939495948E8A88898B89827B35
:1028E800797776777A7C7E7B77787E82868887860A
:1028F800878A8C8E90918E8A8685868583807B7860
:102908007878787A7B79787977787D8383827F7E07
:10291800828686827D79797874706D6A6562646F63
:102928007B797170767E8589898B8F919190909350
:1029380096938C868281827F7874747371717377B1
:102948007B7D7E7E7F838C918E8C9093918F8D8CF6
:102958008C8B867F7C7B7B797673727376797877BC
:102968007B7D7D8087898A8C8B898B8E8E8B8683F5
:10297800807B7471716E685F59585C63727D75688D
:102988006E7F8A9297969292959898979895897E55
:102998007C7B7979766E67686B6F72767A7D7E7FDD
:1029A800858D93979895908F9194959088827D794D
:1029B800787774716E6C6C6C6F777D7E7B7D8287A7
:1029C8008E9495938F8C8E9091918D867F7C7A7A58
:1029D8007A766E666161646664615C5D6B7E858033
:1029E8007D8189929899979898958E8A8B8C898100
:1029F8007973717173726F6E6E6F73777B8287876D
:102A080086888B8E91939493908C8B8B8A88858102
:102A18007D79777878757272707073787B7D7E7F38
:102A28008082878B8F908F8B8A8D908F8F8C8480FC
:102A3800807E7C7B77716B6663656765625E5F6BC2
:102A48007C83817E7F858F969797989693908C8AC2
:102A58008A888077716F70716F6E6E6F7275787E0D
:102A680084898C8C8B8E91949594918C888787849B
:102A78007F7B797673747472727475767A7F8283C9
:102A8800848485888C908F8C8A8B8A8989898784AD
:102A9800807D7B7A7D7D7873717171706E6E6D69E2
:102AA80064636570838B81787C86919899948F8D07
:102AB8008D8D898787837973706F7276726D6C6F6D
:102AC800737A808386888A8B8C8F9495928F8C8971
:102AD8008A8B87827F7C7875767779797675767731
:102AE8007A7F8080808082878B8E8F8B8786898A89
:102AF8008B8B8985817E7E8182807A7474777775E5
:102B080073706D6D6D6966666C7782847F7E848D67
:102B18009496928F8E8C8A888684837E746E6F7169
:102B28007373726F6F73787C81878C8C8C8E9093A3
:102B380093928F8C89868484837E7A77757476786D
:102B480077777877787B7D808585848687888A8D76
:102B58008B888684858988848483807F7F7E7E7E37
:102B68007B787879787673737270706F6963667042
:102B78007E88867D7A838E939494908B8A898886C2
:102B880085817B726E6F737474737070757C8186C7
:102B98008A8C8C8E8F8F9093928E8B878482828181
:102BA800807C7673747578797876787A7B7F808084
:102BB800838685848586888B8986868686898884A7
:102BC80083837F7E807F7E7F7C7878797977767340
:102BD800706E6F6E696365707D88897F7B858F9263
:102BE8009596908A8A88878685827B716C707574C1
:102BF80075747072797E82888B8C8C8C8D9094938E
:102C08008E8885838180807F7D79727075787A7DE2
:102C18007C77777D818283858683828487898C8B84
:102C2800837E818586898984807F7E7F81837F7A80
:102C38007878797A7977736F6D6F6D6967676D7D6D
:102C48008D8A7F7F868F989B978F8A8688888380D6
:102C58007D776F6C6E7174747273747A83888A8CE2
:102C68008E8E90908F8F908C86817E7D7D7C7976FC
:102C7800747374767C817F7A7C828385878483856C
:102C880085818185888A877F7D8182838785808009
:102C980082818286847E7C7B797A7A7875736F6E7E
:102CA8006F6D6866686A778D93847C858E959B992D
:102CB8008E888A8A85807D7D796F6A6B6D7176775B
:102CC80073737B82878D91929192918E8D8F8B8673
:102CD800817C797A79777574757978757A8182814A
:102CE8008383838588898782818283858684817F9F
:102CF8007E7E81858785827F81858888837E7B7AB1
:102D08007A7B7A777472716E6B6E716D69676677AC
:102D1800959E897B838F969B978D878586837B7706
:102D28007D7C6F676A6D727B7D76767F878B8F92ED
:102D3800918F8F8F8C8B8D8B86807B767779797747
:102D48007775757A7C7B7E838484858282878A8680
:102D580082818080828484837F7D7E80828687854D
:102D6800828181828486847F7A78797C7C79757483
:102D7800716D6C6E6F6D6B6A6978949F8B7A828FB8
:102D8800969B988B8385868179767B7B70686A6D44
:102D9800737C7C777A83898D8F8F9092928F8B89C1
:102DA8008A89857D7776797A7674757676787B7F69
:102DB80083868785828387898985807D7D7E8183D7
:102DC800827F7C7B808587868686848284888884C7
:102DD800827F7B797A78757371706F6C6A6E706DAB
:102DE80069677593A2917D828D9399988A8283826F
:102DF8007D7976787A736A696E747D837E7A818B41
:102E08008E9194938F8F8E88848687827A75737655
:102E18007979777777787D808183888886858483B8
:102E28008686837F7C797A7D7F7F7E7B7C808488A1
:102E3800898886858486888987837D7B7C7B78786A
:102E480076737171716F6E707372706F717F979F07
:102E58008C7B818E949691857D7D7F7C7876787841
:102E6800736D6E747C83847E7C848D8F8F908F8D40
:102E78008B86838486827D787473777B7B7A7B7B71
:102E8800797A80868A8D8A818085878786807A7A12
:102E98007B7A7D81807C797A81888A8A8885838516
:102EA80087898885827D79787A7B79777371727260
:102EB80071727371717475777F8C94908580858C2D
:102EC8008F8D89817C7A7B7A797A79767272767B32
:102ED8008085858182878B8C8D8E8C888482838384
:102EE800817E7A777778797A7A7D7E7D7C80868A0A
:102EF8008B878180838585827F7C7C7C7B7B7D7FC3
:102F08007F7D7D8086898A89878585868786848175
:102F18007D7B7B7B7A797776747575757576767532
:102F280074767A7F818081868B8B87848486878577
:102F3800827D7B7C7D7C7978797A7A7B7D818383BD
:102F4800838385888A8A88878584838181807E7C3B
:102F58007B79797B7D7D7D7E7E7E7F82858685827D
:102F68008081838483807D7D7D7C7D8081807F7F5F
:102F7800808386878786838284858483817D7C7C21
:102F88007B7B7B7977767777787877777575777BBA
:102F98007E808080848989848385868685817B7B01
:102FA8007D7E7D7A7A7A7B7B7C7E7E808283838538
:102FB800888988868584848483807F7E7D7B7A7AED
:102FC8007B7C7D7E807F7D7F8282838686817F81F8
:102FD800828182817E7C7C7E8080808080808285E8
:102FE80086868685838384838382807E7D7B7B7CC3
:102FF8007C7B797878797A7977777778797A7B7C36
:103008007C7C7E7F8084878683828283848482819D
:10301800807E7E7D7D7E7E7E7C7B7D7F81828483BB
:1030280082838485858685827F7F80807F7F7F7E7F
:103038007C7C7D7D7D7E7F7F81848380818383838B
:1030480083807E808180807F7F8081808081838370
:103058008484838384848381807F7F7E7C7A7B7B66
:1030680079787877767778787A7C7D7D7D7D8083AE
:1030780083818081818385837F7F807E7D7E7F7E43
:103088007E7D7C7D8081818181818284848484832A
:10309800828282818080807F7F7E7D7E8183807D29
:1030A8007E80818282818080808080808182817F11
:1030B8007E7F818282807F808182838383818182F7
:1030C80081818282807F7D7D7D7D7C7B7A7A797823
:1030D800787778797B7D7C7B7D8082828281818212
:1030E8008385848280807F7E7E7E7E7D7C7C7C7DE5
:1030F8007E808080818283848484848382828281AA
:1031080080807F7E7E7D7D7E7F807F7E7E808182C7
:1031180082828281808081808182807F7F7F7F80A0
:103128008180808081818282828382818282828280
:10313800807F7E7E7D7D7C7B7B7A7A797978797ACF
:103148007C7D7C7B7D808182828181828384848373
:1031580081807F7E7E7E7E7E7D7B7C7D7F80808081
:1031680080818283848484838281818181817F7F3D
:103178007E7E7E7F80807F7D7E7F8081828281814E
:10318800808081818181807F7F7F80808180808035
:10319800818182838282828181818281807F7E7E19
:1031A8007D7D7C7C7C7B7B7A79797A7B7D7E7D7C5E
:1031B8007D8082828181818283838382807F7E7EFB
:1031C8007E7E7E7E7D7C7C7D7F7F80808081828309
:1031D800838383828281818181807F7E7D7E7E7EE2
:1031E8007E7E7E7E7F7F8080818383807F808181D9
:1031F80081807F7F7F8080807F80807F7F808181CA
:10320800828180808181818180807F7F7F7E7E7EB8
:103218007D7C7B7B7B7C7C7B7C7C7D7D7E7E8081DA
:103228007F7F80808081817F7E7E7D7D7D7D7E80A9
:10323800807E7E7E80828282818182828282828179
:1032480081807F7F7F7F7F7F7E7E7E7F8080818180
:1032580080828483818182828282807E807F7E7F59
:103268007F7D7E7F7E7E7F7F8081807F818281815E
:103278008080807F7E7D7D7C7B7B7B7C7D7D7C7C74
:103288007D7E7F80808081818182818080807F7E39
:103298007E7D7D7E7E7E7E7E7E7E7F80808181813A
:1032A80081818181828281807F7F7F7F7F7E7E7D19
:1032B8007C7C7D7E7E7E7E7E7E7F8081818180811A
:1032C800818182828281818080818283817E7E7EEB
:1032D8007F80807F7E7E7E7E7F808080807F7F80F3
:1032E80081828382818080808181807F7F7E7D7DD5
:1032F8007D7E7E7E7D7C7D7E7F80808080818182D8
:10330800828383828181808080807F7E7D7D7D7DB8
:103318007D7D7E7E7D7D7E7F8080818080808181B5
:10332800818181808080807F7F7F7F7E7E7E7E7EA0
:103338007E7E7E7E7F7F7F80808181818181818189
:103348008181808080807F7F7F7F7F7F7F7F7E7E7F
:103358007E7F7F7F7F7F808081808081808080806A
:1033680080807F7F7F7F7F7F7F7F7F7F7E7E7F7F65
:103378007F7F808080808080818180808080808045
:1033880080807F7F7F7F7F7F7F7F7F7E7F7F7F7F44
:103398007F7F7F7F80808080808080808080808029
:1033A800807F7F7F7F7F7F7F7F7F7F7F7F7F7F7F24
:1033B8007F7F7F7F7F80808080808080808080800A
:1033C8007F80807F7F80807F807F7F7F7F7F7F7F00
:1033D8007F7F7F7F7F8080808080808080808080EA
:1033E800808080808080808080807F7F7F7F7F7FDB
:1033F8007F7F7F7F7F7F80808080808080808080CB
:103408008080808080807F7F7F7F7F7F7F7F7F7FBE
:103418007F7F7F7F7F7F7F7F7F7F7F8080808080AF
:1034280080807F80807F7F807F7F7F7F7F7F7F7F9F
:103438007F7F7F7F7F80807F7F808080808080808B
:1034480080808080808080807F7F7F7F807F808079
:103458007F7F808080808080808080808080808066
:103468007F7F808080807F8080807F7F8080808059
:103478008080808080808080808080808080808044
:103488007F808080807F7F80807F7F7F7F7F7F7F3E
:103498007F7F7F7F807F7F7F8080807F7F7F7F7F30
:1034A8007F7F7F7F7F7F7F7F7F7F7F7F7F7F7F7F24
:1034B800807F7F7F7F7F80807F7F807F7F7F7F7F10
:1034C8007F7F7F7F7F7F7F7F7F7F7F7F7F7F7F7F04
:1034D800808080808080807F808080807F7F7F80E8
:1034E800807F7F7F807F7F7F807F7F7F7F7F7F7FE1
:1034F8007F7F7F7F7F807F7F7F7F7F7F7F7F7F7FD3
:103508007F7F7F7F7F7F7F7F7F7F7F7F7F7F7F7FC3
:103518007F7F7F8080807F808080808080808080A7
:103528008080808080808080808080808080808093
:103538008080808080808080808080807F7F7F8086
:10354800807F8080807F7F7F7F80807F7F7F7F7F7D
:103558007F7F7F7F7F7F7F7F7F7F7F7F7F7F7F7F73
:103568007F7F7F7F807F7F7F7F7F7F7F7F80807F60
:103578007F7F7F7F7F808080808080808080808048
:103588008080808080808080808080808080808033
:10359800808080808080808080807F7F8080808025
:1035A8007F7F7F7F7F7F7F7F7F7F7F7F7F7F7F7F23
:1035B8007F7F7F7F7F7F7F7F7F7F7F8080807F800F
:1035C80080808080807F8080807F80807F80807FF7
:1035D80080807F7F7F7F7F807F7F80807F7F7F7FEE
:1035E8007F7F7F7F7F7F7F7F7F7F7F8080807F7FE0
:1035F80080807F80808080808080807F807F7F7FC8
:103608007F7F7F7F7F7F7F7F7F7F7F7F7F7F7F7FC2
:103618007F7F7F7F7F7F808080807F7F807F7F80AC
:103628007F7F7F807F7F7F7F7F7F7F7F7F7F7F7FA1
:103638007F7F7F7F7F7F7F7F7F7F7F7F7F7F7F7F92
:103648007F7F7F7F7F7F7F7F7F7F7F7F7F7F7F7F82
:103658007F7F7F7F7F7F8080808080808080808068
:103668008080808080808080808080808080808052
:103678008080808080808080808080808080808042
:103688007F80808080807F80807F7F807F7F808038
:103698008080808080808080808080808080808022
:1036A8008080808080808080808080808080808012
:1036B8008080808080808080808080808080808002
:1036C800807F7F7F7F7F7F7F7F7F7F7F7F7F7F7F01
:1036D8007F7F7F7F7F7F7F7F7F7F7F7F7F7F7F7FF2
:1036E8007F7F7F7F7F7F7F7F7F7F7F7F80808080DE
:1036F80080808080808080808080808080808080C2
:1037080080808080808080808080808080808080B1
:1037180080808080808080808080808080808080A1
:103728008080808080808080808080808080808091
:10373800808080808080808080807F7F7F7F7F7F87
:103748007F7F7F7F7F7F7F7F7F7F7F7F7F7F7F7F81
:103758007F7F7F7F7F7F7F7F7F7F7F7F7F7F7F7F71
:103768007F7F7F7F7F7F7F7F7F7F7F7F8080807F5E
:103778007F7F807F807F7F807F7F7F7F7F7F7F7F4E
:103788007F7F7F7F7F7F7F7F7F7F7F7F7F7F7F7F41
:103798007F7F7F7F807F8080808080808080808026
:1037A800808080808080807F808080808080808012
:1037B800807F7F7F7F7F7F7F7F7F7F7F7F7F7F7F10
:1037C8007F807F7F7F7F7F7F7F7F7F807F808080FC
:1037D80080808080808080808080808080808080E1
:1037E80080807F8080807F7F7F7F7F7F7F7F7F7FDC
:1037F8007F7F7F7F7F7F7F7F7F7F7F7F7F7F7F7FD1
:103808007F7F7F7F7F7F7F807F80808080808080B8
:1038180080808080808080807F80808080808080A1
:103828008080808080808080808080808080808090
:103838008080808080808080808080808080808080
:103848007F7F7F80807F7F7F7F7F807F7F7F807F7C
:103858007F7F7F7F7F7F7F7F7F7F7F7F7F7F7F7F70
:103868007F7F7F7F7F7F7F7F7F7F7F7F7F7F7F7F60
:103878007F7F807F7F7F7F7F807F7F807F807F804B
:103888008080808080808180807F7F80807F807F33
:103898007F7F7F7F7F7F7F7F7F7F7F7F7F7F807F2F
:1038A8007F7F807F7F807F7F807F808080807F8018
:1038B8007F80807F807F807F808080807F80808005
:1038C8007F807F807F80807F8080807F8080807FF6
:1038D80080807F807F807F807F80807F807F807FE7
:1038E800807F807F807F7F807F807F807F807F7FD9
:1038F800807F7F7F807F807F807F7F7F7F807F80CA
:103908007F807F807F7F7F7F807F807F807F807FB9
:103918007F7F7F807E807E807F807F7F7F7F807FAC
:1039280082808381838285847F7F7C827E807E7F84
:103938007F7E7F7F7F7C817A807C7F7F7F807E8295
:103948007B817F827E86798285758978887C7F8570
:1039580078867C847D827D81807D827D817D847B6B
:10396800817C827E7F827C857B867D877F7F837B4F
:10397800837786787E837C8082807E8776857E7852
:10398800867A81817B857D7E8679877D7F827C8131
:103998007E837E827A857B8285798878837E817F23
:1039A8007E817B8677897B7D867789797F8478831A
:1039B8007F7C837D7F817B847E7E827C807E81820A
:1039C8007C837E7F837E81807E80807E817F7E82F5
:1039D8007F7F7F7F817E80807E7F7E81817E8381E5
:1039E8007D838080837D837E808479857E7E807FD1
:1039F8007D7C867881817A847B7E837C7C847D7DD6
:103A0800827E7E81818080817F81827B877D7D88A7
:103A18007980847D7F847A837F7B8778827F7C82AC
:103A28007E807E827D807F817E81817B857D7D8594
:103A38007C7F8676838279837F7F7F817C817E808D
:103A4800807F827C8675838577887C7D837E818074
:103A580081817E847882827A857B847C827E7F8461
:103A6800788B748482758A7A7F827F7B857F7B8559
:103A78007C837D82807B857B847E7E8477887C7D49
:103A88008679857C837C7E8775887D7C867B7F8331
:103A9800817A837F7E827D807D808378847E7B8926
:103AA80075838179887981807D80807E817F7C881B
:103AB80075887D7B8B708D7A7B8A78837F7F7F8703
:103AC800788483748A7C7F837E7D80837D80847CF8
:103AD8007E8676867D7C8777877C80807D867A82E5
:103AE800817B82807A867D7C857C7E847E7F8678D9
:103AF800867C7E8479887982817C837D817F7E80C3
:103B08008178877B7D887685807C827D7F847D81B6
:103B18008277867E80837A847D7E827C857E7B87A1
:103B28007A80837E8081817B857C7D867B7F827F96
:103B38007D82807F837C847F7B857E7E81807F7E83
:103B48007E8082817D818179877D7A887684827A78
:103B58008679848478868079867C81817B857D7E60
:103B6800847F7B857F7F827B857F7F7F81807F824B
:103B78007E7C8481788C787D8776867F7F807E7D49
:103B880081827D827D807F7F80807D837F78887A37
:103B98007C887C7C847D7F827E7F7C837C80817B2B
:103BA800857F7C848178877E7A857C817E80817C14
:103BB800827F80807E847B7F867883837A827F7E03
:103BC800867C80897581857B81847E7B827E857BEE
:103BD8007E857B8180817B82827A837D7D7F8182E5
:103BE8007E7D817F7F827D807E82817C81807F81D6
:103BF800827D7E7E81817B817F8081807F798282C8
:103C080080817E7D808281807D80817F7F7E8180B2
:103C180080817D7E7F827F7F827C80837E817E7EA5
:103C2800827F7F7F7C81817E807E7E80807F7E7F99
:103C380080818080807E7F807E7F817D7E807E7F88
:103C4800817E7D817E7F807F827C7F827D81827D77
:103C580080827C80807F827F807D7D80837F7E8163
:103C68007B7F82807F81807D7F7E807F7E807F7B5F
:103C780080827D81807E7E7F807D8080807D818046
:103C88007C807F807D7F807A81817E7E7F817F803E
:103C98007F807E7F827F807E7F7F80837D7E7F7F27
:103CA8007F827F7E837E817F7E8080847F807F7E0F
:103CB8008282807E7F80807F7F7F808080807D7E03
:103CC800818280807E7D8081818080807E7E8280EE
:103CD8007F8281807E807E8082817F7E7F7F817EE1
:103CE8007F807D80807E7E80817F7E807E80827FD7
:103CF8007F8081818081807D81817D817F7C8180C1
:103D0800817F7D817D80827F7D80817E817F8180B2
:103D18007E817E7E82827E817E7B7F81827D807FA6
:103D28007B7F827F7E817E7F7D80817D82817D7F9A
:103D38007F808181807E7F827F807F7E82807F807E
:103D48007F808082827F7F7E7F818081817F818169
:103D58007F7F7F82807F807D7F81807E7E7F7F8066
:103D68007E7F8080817F7D808081807F7F7F818151
:103D78008080808081807E808181807E7F7E7F813F
:103D8800807E7F7F7F7F7F827F7F7F7F7F7F828034
:103D980080817F7F7F80807F80807F7F7F807F8022
:103DA800817F7F7E7F7F808181807F807E7F818110
:103DB80080807E7E808181807F807E80807F818000
:103DC8007F7F7E7F807F80807E7F7F7E8081807FF7
:103DD80080807E8081807F80817F7E80817F8081DE
:103DE8007F7F807F8080807F7F8080807F81807ED2
:103DF80080807E80807F817E7F807D7F807E8180C5
:103E08007D7F7F80817F80807E80807D7F80807FB6
:103E18007E7F807F80807F7E807F7F82807F8080A2
:103E280080807F80807F807F7E817F7F7F7F807F93
:103E38007F817F7F808080807F7E7F8080807F7F82
:103E480080807F7F807F807F7E7F8080817F7F8072
:103E5800808081808080807E7F8080817F7F7F7F5F
:103E6800808080807F7E7F807F8080807F7F7F7F53
:103E7800807F807F7F7F808180807F7F80807F8040
:103E88007F7F80807F807E7F7F8080807F7F807F34
:103E98007F80807F80807F807F8080807F807F7F21
:103EA800807F7F7F7F7F80807F80807F7F80818110
:103EB800807F7F7F8080807F80807F8180807F7F00
:103EC800807F80807F7F807E7E7F80807F7F7F7FF6
:103ED8007F80807F80807F7F8080808180807F7FDF
:103EE8007F7F80807F7F7F7F7F80807F7F807F7FD5
:103EF8007F808080807F7F7F8081807F807F7F80C0
:103F08007F7F807F7F7F7E7F808080807F7F7F80B4
:103F180080808080807F7F7F80808080807F7F7F9F
:103F2800808180807F7F7F7F7F7F7F807F7F7F7F93
:103F38008080807F7F7F7F7F807F7F7F7F7F807F84
:103F48007F7F80807F7F7F808080807F7F80808070
:103F5800807F807F7F808080808080807F7F807F5F
:103F6800807F7F7F7F7F807F7F808080807F7F8052
:103F780080807F7F7F7F7F808080807F7F7F7F8042
:103F880080807F7F7F7F8080808080807F7F7F8030
:103F9800808080807F7F80807F7F7F7F7F7F7F7F23
:103FA8007F7F7F7F7F7F7F808080807F7F807F8013
:103FB800808080807F7F7F807F7F807F7F807F8001
:103FC800808080808080807F7F7F7F8080808080ED
:103FD8007F807F807F8080807F7F807F80807F7FE1
:103FE8007F7F7F7F8080808080808080807F7F7FD0
:103FF8007F7F7F7F7F7F80807F7F7F7F7F7F807FC6
:104008008080808080808080807F80807F80807FAB
:1040180080807F807F7F7F7F7F7F7F807F7F7F7FA4
:104028007F8080808080807F7F8080808080807F8C
:104038007F80807F80807F7F7F7F7F7F807F7F8082
:104048007F7F80807F80807F807F7F7F7F807F7F72
:104058007F7F80808080807F7F7F7F7F7F7F7F7F63
:104068008080808080808080808080808080808048
:10407800808080807F7F7F7F7F7F7F7F7F7F7F7F44
:104088007F7F80807F7F7F7F80808080807F80802F
:10409800808080807F7F7F7F808080807F7F7F7F20
:1040A8008080807F80808080808080808080808009
:1040B80080807F7F7F7F7F7F7F7F7F7F7F7F7F7F06
:1040C8007F7F7F7F7F7F80808080808080807F7FF0
:1040D8007F7F7F7F7F7F7F7F7F7F7F807F80807FE5
:1040E800808080807F8080808080808080808080C9
:1040F80080808080808080808080808080808080B8
:10410800808080808080807F7F7F7F7F7F7F7F7FB0
:104118007F7F7F7F7F7F7F7F7F7F7F7F7F7F7F7FA7
:104128007F7F7F7F7F7F7F7F7F7F7F7F8080808093
:10413800807F80808080808080807F808080808079
:1041480080808080808080807F7F7F808080807F6B
:104158007F7F7F7F7F7F7F7F7F7F7F7F7F7F808065
:104168007F80808080808080808080808080808048
:104178008080808080808080808080808080808037
:1041880080808080807F7F7F7F8080807F7F80802D
:104198007F807F7F7F7F7F7F7F7F7F7F7F7F7F8025
:1041A80080808080807F80808080808080807F8009
:1041B800807F80808080807F7F7F808080807F7FFD
:1041C8007F7F7F7F7F7F7F7F7F7F7F7F7F7F7F7FF7
:1041D8007F808080808080808080808080808080D8
:1041E8007F808080808080808080808080808080C8
:1041F8007F808080808080808080807F80808080B9
:10420800807F7F7F8080808080808080807F8080AA
:10421800807F7F7F7F7F7F7F808080807F807F7FA0
:104228007F7F7F807F7F807F7F808080807F7F808F
:10423800808080807F7F7F7F7F7F7F7F7F7F7F7F82
:104248007F7F7F7F80807F7F7F7F7F7F7F7F7F7F74
:104258007F7F808080808080807F80808080808059
:104268008080808080808080808080808080808046
:10427800808080808080808080807F80807F808038
:1042880080807F7F7F7F7F807F7F7F807F80807F30
:1042980080807F7F7F7F7F7F7F807F7F7F7F7F7F23
:1042A8007F7F7F7F7F7F7F7F7F807F7F7F7F7F7F15
:1042B8007F7F7F7F7F807F7F7F7F7F807F7F7F7F04
:1042C8007F7F7F7F7F7F7F7F7F7F7F7F7F7F7F7FF6
:1042D8007F7F807F8080807F80807F80807F8080DC
:1042E8007F80808080807F80808080808080807FC9
:1042F80080808080807F80808080807F80807F80B9
:10430800807F80807F7F807F8080808080808080A9
:104318008080808080808080808080808080808095
:104328008080808080807F7F7F7F7F7F7F7F7F7F8F
:104338007F7F7F7F7F7F7F7F7F7F7F7F7F7F7F7F85
:104348007F7F7F7F7F7F7F7F7F7F807F7F7F7F7F74
:104358007F7F7F7F7F7F7F7F7F7F7F7F7F7F7F7F65
:104368007F7F7F7F7F7F7F7F7F7F7F7F7F80807F53
:10437800807F807F80807F80808080808080808038
:104388008080808080808080808080808080808025
:1043980080807F80808080807F808080807F808018
:1043A8008080808080808080808080808080808005
:1043B8008080808080808080808080807F807F80F7
:1043C800807F807F7F7F7F7F7F7F7F7F7F7F7F7FF3
:1043D8007F7F7F7F7F7F7F8080807F7F807F8080DF
:1043E8008080808080808080808080807F807F7FC8
:1043F8007F7F807F807F807F807F807F807F807FBE
:104408007F807F8080807F807F80808080808080A8
:104418008080808080808080808080808080808094
:104428008080808080808080808080807F80808085
:10443800807F7F7F7F7F7F7F7F7F7F7F7F7F7F7F83
:104448007F7F7F7F7F7F7F7F7F7F7F7F7F7F7F7F74
:104458007F7F7F7F7F7F807F7F7F807F807F807F60
:104468007F7F7F807F808080808080808080808048
:104478008080808080808080808080808080808034
:1044880080807F807F8080808080807F8080807F28
:10449800807F7F7F7F7F7F7F7F7F7F7F7F7F7F7F23
:1044A8007F7F7F7F7F7F7F7F7F7F7F7F7F7F7F7F14
:1044B8008080807F807F807F808080807F807F80F9
:1044C800808080808080807F807F807F8080807FE8
:1044D8007F7F7F7F7F7F7F7F80807F7F7F80807FE0
:1044E8007F80807F7F8080807F807F80807F8080CA
:1044F8008080808080808080807F807F80808080B6
:10450800807F807F807F80807F807F807F808080A9
:04451800803A0000E5
:0400000508000000EF
:00000001FF
